:020000040000FA
:100000000A128A11E72F00308A000408840A820746
:1000100000343934383437343634003453346934A6
:100020007334743465346D346134203442346C3448
:100030006F34713475346534613464346F34003432
:1000400043346C34613476346534203449346E344E
:1000500063346F34723472346534633474346134AD
:1000600000344D346F346E34693474346F34723408
:1000700065346F34203441346334743469347634F5
:100080006F34003445344E345434453452342034C3
:10009000503441345334533457344F34523444344D
:1000A000003443346C346134763465342034433462
:1000B0006F347234723465346334743461340034B0
:1006E200F030831603138605F03086048113FF3041
:1006F2009500831603178901080001300A128A1136
:100702001C240A128A110830F400C930F300F30BDA
:10071200882BF40B882B8D2B080031343234333480
:10072200413434343534363442343734383439345D
:1007320043342A3430342334443403347E088A0068
:100742007F0882000A128A119F230A128A118000EE
:10075200840A04087D0603190034FF0A0319FE0AFD
:10076200A32BC12B730884000A128A1103200A12D8
:100772008A110A128A1152240A128A110130F307CD
:10078200730884000A128A1103200A128A11003A9D
:10079200031DCC2BCD2BB32B0800F60002307602C2
:1007A2000318D42BD52BE02B74080F398038F700AF
:1007B20077080A128A111C240A128A11EA2B740879
:1007C2000F39C038F70077080A128A111C240A125E
:1007D2008A117508F3000A128A11B2230A128A11C9
:1007E20008008316031388012730F400F530F30064
:1007F200F30BF92BF40BF92B02300A128A111C2489
:100802000A128A1128300A128A111C240A128A1129
:1008120001300A128A111C240A128A110C300A129F
:100822008A111C240A128A1106300A128A111C2407
:100832000A128A110800F200F0307205F0008312E9
:10084200031308080F397004880008108814000088
:100852008312031388100330F1009730F000F00B7D
:10086200302CF10B302C352C7208F00004300310C0
:10087200F00DFF3E031D382C8312031308080F39B5
:100882007004880088140000831203138810083053
:10089200F100C930F000F00B4C2CF10B4C2C512C18
:1008A2000800F200F0307205F0008312031308080A
:1008B2000F3970048800081488140000831203138F
:1008C20088100330F1009730F000F00B662CF10B2A
:1008D200662C6B2C7208F00004300310F00DFF3E02
:1008E200031D6E2C8312031308080F39700488004D
:1008F200881400008312031388100830F100C930F5
:10090200F000F00B822CF10B822C872C0800803037
:10091200F3000130F2009F2C730872048312031358
:1009220087008230F100DD30F000F00B962CF10BE5
:10093200962C9B2C0310F30C0230F2077308031D54
:10094200A32CA42C8D2C1030F300B92C7308720444
:100952008312031387008230F100DD30F000F00BC8
:10096200B02CF10BB02CB52C0310F30D0230F207B2
:1009720080307306031DBE2CBF2CA72C08008030CC
:10098200F200D22C72088312031387008230F10026
:10099200DD30F000F00BCB2CF10BCB2CD02C031064
:1009A200F20C08307206031DD72CD82CC32C083049
:1009B200F200EA2C72088312031387008230F100DE
:1009C200DD30F000F00BE32CF10BE32CE82C0310EC
:1009D200F20C7203031DEE2CEF2CDB2C7208831237
:1009E200031387008230F100DD30F000F00BF72CAA
:1009F200F10BF72CFC2C08000A128A117E230A1232
:100A02008A11F4010630F50000300A128A11CE2351
:100A12000A128A11FB01FC01831203130914043028
:100A2200FA000C30F9003330F800F80B162DF90BF0
:100A3200162DFA0B162D1D2D8312031309100630E5
:100A4200FA001330F900AD30F800F80B262DF90B3F
:100A5200262DFA0B262D2D2D0130FB070318FC0A3B
:100A62000030FC077C08803AFF0080307F02031DC3
:100A72003C2D08307B02031C3F2D402D0D2D0A1208
:100A82008A117E230A128A11033083120313CB00C8
:100A9200CD0108000130F2020030031CF303F3021F
:100AA200720A031D582D730A031D582D592D662DE8
:100AB200F001F101A22D0130F0070130F107013000
:100AC200F2020030031CF303F30270088400831364
:100AD200000803196D2D6E2D902D710884000A12E5
:100AE2008A1103200A128A11003A0319792D7A2DEC
:100AF200902D7208730403197F2D802D902D71089B
:100B020084000A128A1103200A128A11F400700862
:100B120084000008740603198F2D902D5C2D710836
:100B220084000A128A1103200A128A11F400700842
:100B320084000008F50074087502F000F101031C3E
:100B4200F10308007130831603138F0088018701B7
:100B52000130831603178800831603138901831259
:100B6200031389010A128A11F2230A128A110A1244
:100B72008A1171230A128A11EA2D0A128A11D326C6
:100B82000A128A11EA2D0A128A11FD240A128A1106
:100B9200EA2D0A128A117E230A128A11F4012930DF
:100BA200F50000300A128A11CE230A128A111F3070
:100BB20083120313BA007130B9001D30B800B80BAC
:100BC200E02DB90BE02DBA0BE02DE72D83120313B4
:100BD200CD01831203134D08B800B9013908003A58
:100BE2000319F42DEA2D3808003A0319BE2D013AF3
:100BF2000319CA2D033A0319C42DEA2D0A128A11C8
:100C020000283B3084002030F0001030F1008313C4
:100C12000008F200040AF3007008840072088000E1
:100C2200040AF00073088400F10B082E83120313E8
:100C3200B001B101B2018312031331083204031D62
:100C4200232E242E452EE03086004230F000F00B99
:100C5200282E000083120313061A302E312E332E53
:100C62002008B000861A362E372E392E2108B00001
:100C7200061B3C2E3D2E3F2E2208B000861B422E24
:100C8200432E452E2308B00031033204031D4A2EA1
:100C92004B2E6C2EE13086004230F000F00B4F2ECE
:100CA200000083120313061A572E582E5A2E2408B8
:100CB200B000861A5D2E5E2E602E2508B000061B3F
:100CC200632E642E662E2608B000861B692E6A2EBD
:100CD2006C2E2708B000023031063204031D722E3A
:100CE200732E942EE33086004230F000F00B772E04
:100CF200000083120313061A7F2E802E822E2808EC
:100D0200B000861A852E862E882E2908B000061B72
:100D12008B2E8C2E8E2E2A08B000861B912E922EA0
:100D2200942E2B08B000033031063204031D9A2E94
:100D32009B2EBC2EE73086004230F000F00B9F2E37
:100D4200000083120313061AA72EA82EAA2E2C081F
:100D5200B000861AAD2EAE2EB02E2D08B000061BA6
:100D6200B32EB42EB62E2E08B000861BB92EBA2E84
:100D7200BC2E2F08B0000130B1070318B20A0030B0
:100D8200B2073208803AFF0080307F02031DCB2E6B
:100D920004303102031CCE2ECF2E1C2E83120313DD
:100DA2003008080083120313CC014B080319DA2E12
:100DB200DB2ED22FF4013A30F50000300A128A11EC
:100DC200CE230A128A11C0300A128A111C240A1276
:100DD2008A110A128A1102260A128A118312031335
:100DE200B70037080319F62EF72E072F2A300A12FA
:100DF2008A1152240A128A11831203134C084E3E9E
:100E020084003708831380000130CC070230FA00D7
:100E12000430F900BA30F800F80B0D2FF90B0D2F42
:100E2200FA0B0D2F00000430831203134C02031C33
:100E32001B2F1C2FEA2E4E30F0000130F10004303F
:100E4200F2000030F3000A128A114B250A128A11AD
:100E520070087104031D2E2F2F2F872F0A128A115B
:100E62007E230A128A11F4014930F50000300A1279
:100E72008A11CE230A128A1183120313B301B40119
:100E82008312031389140630FA001330F900AD30CF
:100E9200F800F80B4A2FF90B4A2FFA0B4A2F512F61
:100EA2008312031389100630FA001330F900AD30B3
:100EB200F800F80B5A2FF90B5A2FFA0B5A2F612F01
:100EC200013083120313B3070318B40A0030B407C6
:100ED2003408803AFF0080307F02031D722F0330F6
:100EE2003302031C752F762F412F03308312031315
:100EF200CB000130CD000A128A1188240A128A110D
:100F02000A128A11C0240A128A11D42F0A128A11D3
:100F12007E230A128A11F4011830F50000300A12F9
:100F22008A11CE230A128A1183120313B501B60164
:100F32008312031309150430FA000C30F900333020
:100F4200F800F80BA22FF90BA22FFA0BA22FA92F50
:100F52008312031309110830FA001B30F9002730FD
:100F6200F800F80BB22FF90BB22FFA0BB22F0130A7
:100F720083120313B5070318B60A0030B607360802
:100F8200803AFF0080307F02031DC92F02303502F4
:100F9200031CCC2FCD2F992F013083120313CB02C8
:100FA200D42F0230CD001530FA004B30F900BE309C
:100FB200F800F80BDA2FF90BDA2FFA0BDA2F000010
:100FC2000A128A117E230A128A11080083134C30F6
:100FD200FD000330FE008E30FF003B3084000A1219
:100FE2008A11A3230A128A11CC01CD01CE01CF01AD
:0E0FF200D001D101D20183010A128A11A32D70
:04400E00D520FF3F7B
:00000001FF
